{
  "contractName": "Vote",
  "abi": [
    {
      "inputs": [
        {
          "internalType": "uint256",
          "name": "catOrDog",
          "type": "uint256"
        }
      ],
      "name": "vote",
      "outputs": [],
      "stateMutability": "nonpayable",
      "type": "function"
    },
    {
      "inputs": [],
      "name": "winner",
      "outputs": [
        {
          "internalType": "string",
          "name": "",
          "type": "string"
        }
      ],
      "stateMutability": "view",
      "type": "function",
      "constant": true
    },
    {
      "inputs": [
        {
          "internalType": "uint256",
          "name": "_x",
          "type": "uint256"
        }
      ],
      "name": "enter",
      "outputs": [],
      "stateMutability": "nonpayable",
      "type": "function"
    }
  ],
  "bytecode": "0x608060405260008055600060015534801561001957600080fd5b50610438806100296000396000f3fe608060405234801561001057600080fd5b50600436106100415760003560e01c80630121b93f14610046578063a59f3e0c14610062578063dfbf53ae1461007e575b600080fd5b610060600480360381019061005b9190610219565b61009c565b005b61007c60048036038101906100779190610219565b61012a565b005b610086610134565b604051610093919061029e565b60405180910390f35b600281106100df576040517f08c379a00000000000000000000000000000000000000000000000000000000081526004016100d6906102c0565b60405180910390fd5b6000811415610104576000808154809291906100fa90610339565b9190505550610127565b6001811415610126576001600081548092919061012090610339565b91905055505b5b50565b8060028190555050565b6060600154600054111561017f576040518060400160405280600481526020017f43415453000000000000000000000000000000000000000000000000000000008152509050610201565b60005460015411156101c8576040518060400160405280600481526020017f444f4753000000000000000000000000000000000000000000000000000000008152509050610201565b6040518060400160405280600481526020017f445241570000000000000000000000000000000000000000000000000000000081525090505b90565b600081359050610213816103eb565b92915050565b60006020828403121561022b57600080fd5b600061023984828501610204565b91505092915050565b600061024d826102e0565b61025781856102eb565b9350610267818560208601610306565b610270816103b1565b840191505092915050565b6000610288600f836102eb565b9150610293826103c2565b602082019050919050565b600060208201905081810360008301526102b88184610242565b905092915050565b600060208201905081810360008301526102d98161027b565b9050919050565b600081519050919050565b600082825260208201905092915050565b6000819050919050565b60005b83811015610324578082015181840152602081019050610309565b83811115610333576000848401525b50505050565b6000610344826102fc565b91507fffffffffffffffffffffffffffffffffffffffffffffffffffffffffffffffff82141561037757610376610382565b5b600182019050919050565b7f4e487b7100000000000000000000000000000000000000000000000000000000600052601160045260246000fd5b6000601f19601f8301169050919050565b7f696e76616c696420696e70757421210000000000000000000000000000000000600082015250565b6103f4816102fc565b81146103ff57600080fd5b5056fea26469706673582212200982df3c6e638a5713a466c2b4aaae32981011a1e66d5c1997904cebe5b9b72664736f6c63430008010033",
  "immutableReferences": {},
  "source": "// SPDX-License-Identifier: MIT\npragma solidity 0.8.1;\n\ncontract Vote {\n    \n    uint256 private cats = 0;\n    uint256 private dogs = 0;\n    uint x;\n    \n    function vote(uint256 catOrDog) public {\n        /**\n         * if catOrDog == 0, then the user is voting for cat\n         * if catOrDog == 1, then the user is voting for dog\n         */\n         \n        require(catOrDog < 2, \"invalid input!!\");\n         \n        if(catOrDog == 0) {\n            cats++;\n        }\n        else if(catOrDog == 1) {\n            dogs++;\n        }\n    }\n    \n    function winner() public view returns(string memory) {\n        if(cats > dogs) {\n            return \"CATS\";\n        }\n        else if(dogs > cats) {\n            return \"DOGS\";\n        }\n        return \"DRAW\";\n    }\n    \n    function enter (uint _x) public {\n        x = _x;\n    }\n}",
  "sourcePath": "/home/pankaj/voter/contracts/Vote.sol",
  "compiler": {
    "name": "solc",
    "version": "0.8.1+commit.df193b15.Emscripten.clang"
  },
  "schemaVersion": "3.4.4",
  "updatedAt": "2022-02-21T12:36:03.189Z",
  "networkType": "ethereum",
  "devdoc": {
    "kind": "dev",
    "methods": {},
    "version": 1
  },
  "userdoc": {
    "kind": "user",
    "methods": {},
    "version": 1
  }
}